:100000000C94A0330C94D1330C94D1330C94D13391
:100010000C94D1330C94D5AA0C94D1330C94D133D5
:100020000C9498AE0C94D1330C9464770C94D13327
:100030000C94D1330C94D1330D94A3520C94CDEC89
:100040000C94D1330D9444020C94D1330C94D133DD
:100050000C94D1330C94D1330C94D1330C9490760E
:100060000C94D1330C94A8E70C94D1330C94D13375
:100070000C94D1330C94D1330C94D1330C94D133F0
:100080000C94D1330C94D1330C94D1330C94D133E0
:100090000C9464E70C94D1330C94D1330C94D13389
:1000A0000C94D1330C94D1330C94D1330C94D133C0
:1000B0000C94D1330C94D1330C94D1330C94D133B0
:1000C0000C94D1330C94D1330C94D1330C945DEB5C
:1000D0000C94D1330C94D1330C94D1330C94D13390
:1000E0000C94D133AC76B676C476D176E376EA76E4
:1000F000267708771E77777B797B777B797B777B91
:10010000797B7B7B7D7B80CD91CDA3CDB0CDBACDEE
:10011000E9CD6ACD0ACE1CCE18CE6ACD1ECE3BCE1E
:100120004FCE61CE90F699F63EF60DF6DDF5B4F9B8
:10013000D4F6F9F7BAF8FEF81AF951F9E501FB011E
:10014000EF018D015101E7017701D50107020D0291
:100150009701A70171010902E7011D0223026B014A
:100160000B02AB01F901D7016D017901150287017D
:100170007D014B019B015D012B0285017901C501C8
:10018000B1012D02BF01BF01BD01BF01BD010502CB
:100190008101690195011702CB01FD01BB01C3017A
:1001A0007B01DB01B3017301CF01E1011F021902E1
:1001B0000F02D101C101F301DD016F016701A3014C
:1001C00065010302084AD73B3BCE016E84BCBFFDEC
:1001D000C12F3D6C74319ABD56833DDA3D00C77F17
:1001E00011BED9E4BB4C3E916BAAAABE00000080B0
:1001F0003F05A84CCDB2D44EB93836A9020C50B93F
:10020000918688083CA6AAAA2ABE000000803F0763
:10021000634236B79BD8A71A39685618AEBAAB55A1
:100220008C1D3CB7CC5763BD6DEDFD753EF6177266
:1002300031BF000000803F08000000BE9224491238
:100240003EABAAAA2ABECDCCCC4C3E00000080BE5C
:10025000ABAAAAAA3E00000000BF000000803F0039
:1002600000000000084178D3BB4387D1133D190E2D
:100270003CC3BD4282AD2B3E68EC8276BED98FE195
:10028000A93E4C80EFFFBE01C4FF7F3F000000008D
:1002900000000D946D650D946A120D948AA20D9460
:1002A000116A0D94360E0D944A650D9451650D94A6
:1002B000190F0D94A2650D94320F0D947E120D94BA
:1002C000476A0D94AA6A0D948B690D94E4870D9486
:1002D000C7870D94CE6B0D946F0E0D9446120D943E
:1002E000B9870D945D0E0D947C6E0D94B2010D9442
:1002F000410E0D94BF120D94506F0D9460120D9429
:10030000D45F0D94F0640D94E1840D9497120D94D4
:1003100058120D94750E0D94140F0D94300E0D940B
:100320001E0F0D94230F0D9466650D942D6F0D9483
:10033000530E0D94635F0D9474120D942D0F0D9454
:1003400055630D94C8600D94DE870D94910E0D9445
:10035000590E0D94360F0D942D120D940F0F0D9410
:100360002A600D94AB120D94AA6E0D94FC5F0D944F
:10037000D8100D9435650D94DC6E0D94EA640D94DF
:10038000E7640D9497870D94D16E0D94A1120D948E
:1003900015800D9443650D94F26E0D94960E0D9498
:1003A000606E0D9491870D9409630D94450E0D9424
:1003B0003C120D94AE630D94406F0D94AB870D9479
:1003C00074650D9445870D94756B0D943A0E0D94DC
:1003D000740E0D9468AA0D94CE5E0D94830E0D9448
:1003E0002C0E0D94CF620D949D870D94EB5F0D94B0
:1003F0005F650D9432120D943D0E0D94E76E0D94D1
:10040000675F0D9458650D94F2870D94ED640D941B
:100410004B0E0D94610E0D9428120D944F0E0D94F9
:1004200075870D943C650D94E6100D9450120D9453
:10043000FD6E0D9463870D94556B0D94670E0D94AE
:1004400053870D94735F0D946B0E0D9451600D9452
:10045000280F0D942C650D948D120D94B5126E61BC
:100460006E00696E66004E414E494E495459494EE0
:1004700046CDCCCC3D0AD7233C17B7D13877CC2B0F
:10048000329595E6241FB14F0A000020410000C8B4
:100490004200401C4620BCBE4CCA1B0E5AAEC59D35
:1004A0007400407A10F35A00A0724E18090010A58B
:1004B000D4E80000E87648170000E40B540200007E
:1004C000CA9A3B000000E1F5050000809698000004
:1004D0000040420F000000A086010000001027002D
:1004E000000000E803000000006400000000000AB3
:1004F00000000000000100000000002C76D888DC1D
:10050000674F0823DFC1DFAE59E1B1B796E5E3E4F9
:1005100053C63AE651997696E8E6C28426EB898C72
:100520009B62ED407C6FFCEFBC9C9F40F2BAA56FD4
:10053000A5F490055A2AF75C936B6CF9676DC11BA3
:10054000FCE0E40D47FEF520E6B500D0ED902E036B
:1005500000943577050080841E080000204E0A00B4
:100560000000C80C333333330F986E12831141EF00
:100570008D2114893BE65516CFFEE6DB18D1844B5E
:10058000381BF77C1D901DA4BBE424203284725ECE
:10059000228100C9F124ECA1E53D276364696E6FF7
:1005A00070737578585B00256420627974657320D8
:1005B0007772697474656E20746F20454550524F90
:1005C0004D206174206164647265737320307825F6
:1005D000303478004433202D20526561642F5772E7
:1005E00069746520454550524F4D0A0020436F7590
:1005F0006E7420583A20005344207072696E7469FA
:100600006E67206279746520004E6F7420696E20D9
:100610006661726D206D6F64652E0041637469764A
:10062000652045787472756465723A2000496E766B
:10063000616C6964206578747275646572005A2013
:100640004F666673657400556E6B6E6F776E2063D0
:100650006F6D6D616E643A2022004D32303020495A
:100660006E76616C69642065787472756465722059
:10067000007A5F6D61783A20007A5F6D696E3A208A
:1006800000795F6D61783A2000795F6D696E3A207C
:1006900000785F6D61783A20006F70656E0054528B
:1006A0004947474552454400785F6D696E3A2000DE
:1006B0005265706F7274696E6720656E6473746FD3
:1006C00070207374617475730053494C454E540027
:1006D0004E4F524D414C002553204D4F44453A203A
:1006E00050657263656E7420646F6E653A20256490
:1006F0003B207072696E742074696D652072656D3F
:1007000061696E696E6720696E206D696E733A204B
:1007100025640A00456E642066696C65206C697307
:100720007400426567696E2066696C65206C697348
:1007300074000A50494E44412074656D70657261C1
:10074000747572653A20252E3166205A20736869C7
:10075000667420286D6D293A20252E3366000A53D1
:100760007465703A2025642F360A000A5374657048
:100770003A2025642F362028736B697070656429D0
:100780000A50494E44412074656D706572617475FC
:1007900072653A202564205A20736869667420289F
:1007A0006D6D293A300A000A5A45524F3A20252EDB
:1007B00033660A0073746172742074656D706572BB
:1007C00061747572653A20252E31660A0025642011
:1007D00020252E326600255320583A20252E3566D6
:1007E00020593A20252E3566205A3A20252E356686
:1007F0000A00536C6565702E2E2E004E6F742069B2
:100800006E206661726D206D6F64652E0025640038
:1008100045303A25642052504D0A50524E303A2508
:10082000642052504D0A00256400442D31202D20B3
:10083000456E646C657373206C6F6F700A00417550
:10084000746F0020452F443D00416476616E6365FE
:10085000204B3D004D323230205325690025534650
:10086000696C616D656E742073657474696E67730D
:100870003A2044697361626C65640A0025534669D5
:100880006C616D656E742073657474696E67733A1C
:100890000A25532020204D3230302044252E326648
:1008A0000A002553526574726163743A20533D4CBB
:1008B000656E67746820286D6D2920463A5370650F
:1008C000656420286D6D2F6D29205A3A205A4C6995
:1008D000667420286D6D290A25532020204D323062
:1008E000372053252E32662046252E3266205A2583
:1008F0002E32660A25535265636F7665723A20532D
:100900003D4578747261206C656E67746820286D4F
:100910006D2920463A537065656420286D6D2F6DF2
:10092000290A25532020204D3230382053252E32DD
:10093000662046252E32660A25534175746F2D5266
:100940006574726163743A20533D3020746F206483
:10095000697361626C652C203120746F20696E743C
:1009600065727072657420657874727564652D6F38
:100970006E6C79206D6F766573206173207265747B
:100980007261637473206F72207265636F76657233
:100990006965730A25532020204D323039205325B4
:1009A000640A002553504944206865617462656497
:1009B0002073657474696E67733A0A25532020208A
:1009C0004D3330342050252E32662049252E326694
:1009D0002044252E32660A00255350494420736571
:1009E0007474696E67733A0A25532020204D3330A2
:1009F000312050252E32662049252E32662044258E
:100A00002E32660A00255353746570732070657228
:100A100020756E69743A0A255320204D39322058CA
:100A2000252E32662059252E3266205A252E326612
:100A30002045252E32660A25535553746570207261
:100A400065736F6C7574696F6E3A200A2553204D7B
:100A50003335302058256420592564205A256420D8
:100A60004525640A25534D6178696D756D2066656D
:100A700065647261746573202D206E6F726D616C98
:100A800020286D6D2F73293A0A255320204D3230CE
:100A9000332058252E32662059252E3266205A25BD
:100AA0002E32662045252E32660A25534D6178691F
:100AB0006D756D20666565647261746573202D20A7
:100AC000737465616C746820286D6D2F73293A0A00
:100AD000255320204D3230332058252E32662059A0
:100AE000252E3266205A252E32662045252E326666
:100AF0000A25534D6178696D756D20616363656C7E
:100B000065726174696F6E202D206E6F726D616CFD
:100B100020286D6D2F7332293A0A255320204D323B
:100B200030312058256C752059256C75205A256C5C
:100B3000752045256C750A25534D6178696D756D75
:100B400020616363656C65726174696F6E202D202E
:100B5000737465616C746820286D6D2F7332293A47
:100B60000A255320204D3230312058256C752059EC
:100B7000256C75205A256C752045256C750A255302
:100B8000416363656C65726174696F6E3A20533DB1
:100B9000616363656C65726174696F6E2C20543D8E
:100BA0007265747261637420616363656C65726100
:100BB00074696F6E0A255320204D3230342053253E
:100BC0002E32662054252E32660A25534164766102
:100BD0006E636564207661726961626C65733A2048
:100BE000533D4D696E2066656564726174652028A9
:100BF0006D6D2F73292C20543D4D696E20747261E8
:100C000076656C20666565647261746520286D6D1B
:100C10002F73292C20423D6D696E696D756D2073AF
:100C200065676D656E742074696D6520286D732924
:100C30002C20583D6D6178696D756D205859206A7A
:100C400065726B20286D6D2F73292C20205A3D6D05
:100C50006178696D756D205A206A65726B20286D08
:100C60006D2F73292C2020453D6D6178696D756D60
:100C70002045206A65726B20286D6D2F73290A2527
:100C80005320204D3230352053252E3266205425F6
:100C90002E32662042252E32662058252E326620BE
:100CA00059252E3266205A252E32662045252E32B1
:100CB000660A2553486F6D65206F666673657420FC
:100CC000286D6D293A0A255320204D3230362058A0
:100CD000252E32662059252E3266205A252E326660
:100CE0000A004625642025640A004D4D55203C3DF0
:100CF0002027462564202564270A005049442041C6
:100D000075746F74756E652066696E697368656465
:100D1000212050757420746865206C617374204BB9
:100D2000702C204B6920616E64204B6420636F6ED1
:100D30007374616E74732066726F6D2061626F767A
:100D40006520696E746F20436F6E666967757261A6
:100D500074696F6E2E6800504944204175746F7439
:100D6000756E65206661696C6564212074696D65C6
:100D70006F75740020403A00543A00423A005049DE
:100D800044204175746F74756E65206661696C6589
:100D900064212054656D706572617475726520748C
:100DA0006F6F206869676800204B643A2000204B11
:100DB000693A2000204B703A200020436C61737325
:100DC00069632050494420002054753A2000204B8C
:100DD000753A2000206D61783A2000206D696E3AE6
:100DE000200020643A200020626961733A200020CC
:100DF000453A00205A3A0020593A0020453A00204E
:100E00005A3A0020593A00583A00005A30005A31F4
:100E100000593000593100583000583100456E6497
:100E20002073746F70732064696167002E004465DD
:100E30006C6574696F6E206661696C65642C204610
:100E4000696C653A200046696C652064656C657460
:100E500065643A000A002F000A004E6F7420534464
:100E6000207072696E74696E67005072696E7420CA
:100E70007361766564005344207072696E742070EB
:100E80006175736564004F4B004241440052414D0F
:100E9000426F2046414E200043524153485F434138
:100EA0004E43454C0043524153485F5245434F56D1
:100EB00045520043524153485F5245434F564552B5
:100EC00000222832290054004475706C69636174F3
:100ED0006520542D636F64652069676E6F72656469
:100EE0002E0A004475706C696361746520542D632B
:100EF0006F64652069676E6F7265642E0A00496EC3
:100F000076616C6964205420636F64652E00556EB1
:100F10006B6E6F776E204D20636F64653A2025738A
:100F2000200A006E6F2076616C696420636F6D6DBE
:100F3000616E64002C20002C20002C20006E2F619C
:100F4000002C20002C20002C20006E2F61002F0090
:100F5000503A005761697420666F722050494E44C0
:100F600041207461726765742074656D706572618B
:100F7000747572653A004C414E472053454C2046EB
:100F80004F52434544002228312900303030303060
:100F90003030302D303030302D303030302D30305A
:100FA00030302D3030303030303030303030300074
:100FB00020555549443A0031002045585452554473
:100FC00045525F434F554E543A005072757361203D
:100FD0007833204D4B3300204D414348494E455F07
:100FE000545950453A00312E3000206261736564D7
:100FF000206F6E204D61726C696E204649524D57CC
:101000004152455F55524C3A68747470733A2F2FB1
:101010006769746875622E636F6D2F707275736186
:1010200033642F50727573612D4669726D776172EA
:10103000652050524F544F434F4C5F5645525349D1
:101040004F4E3A004649524D574152455F4E414D31
:10105000453A50727573612D4669726D776172659C
:1010600020004D31313320530020423A0020453AD0
:1010700000543A0020413A0020503A002042403AC1
:101080000020403A00202F003A00205400202F007A
:1010900020423A00202F006F6B20543A002569202F
:1010A0006D696E2C2025692073656300496E766139
:1010B0006C6964204D20636F64653A202573200AB3
:1010C00000556E6B6E6F776E204720636F64653AD4
:1010D000202573200A004D65736820626564206CCA
:1010E0006576656C696E67206E6F742061637469E4
:1010F00076652E000A002020000A4D656173757226
:10110000656420706F696E74733A000A5A207365C3
:1011100061726368206865696768743A20002C0012
:101120004E756D20582C593A2000206D6963726FFE
:101130006E730045786365737369766520626564D4
:10114000206C6576656C696E6720636F727265638B
:1011500074696F6E3A2000426564206C6576656C38
:10116000696E67206661696C65642E2053656E73D5
:101170006F722074726967676572656420746F6F3F
:1011800020686967682E0A00426564206C65766590
:101190006C696E67206661696C65642E2053656EAC
:1011A000736F7220646973636F6E6E6563746564D8
:1011B000206F72206361626C652062726F6B656E76
:1011C0002E0A004732382057300050494E44412003
:1011D00070726F62652063616C6962726174696FBD
:1011E0006E20737461727400473238205730004D9E
:1011F0003234005345545F43484F505F00534554C9
:101200005F535445505F005345545F574156455F07
:1012100000544D435F0043524153485F00472D63E4
:101220006F646520736C6963656420666F7220610A
:1012300020646966666572656E74206C6576656C9F
:101240002E20436F6E74696E75653F00472D636F86
:10125000646520736C6963656420666F7220612029
:10126000646966666572656E74206C6576656C2E61
:1012700020506C656173652072652D736C696365C0
:1012800020746865206D6F64656C20616761696EAC
:101290002E205072696E742063616E63656C6C659C
:1012A000642E00472D636F646520736C6963656409
:1012B00020666F722061206E6577657220666972A4
:1012C0006D776172652E20506C6561736520757055
:1012D0006461746520746865206669726D776172F7
:1012E000652E205072696E742063616E63656C6C4C
:1012F00065642E00472D636F646520736C696365B8
:101300006420666F722061206E6577657220666961
:10131000726D776172652E20436F6E74696E7565AC
:101320003F00472D636F646520736C6963656420BB
:10133000666F72206120646966666572656E7420EE
:101340007072696E74657220747970652E20506CAD
:10135000656173652072652D736C696365207468BF
:1013600065206D6F64656C20616761696E2E205029
:1013700072696E742063616E63656C6C65642E00C7
:10138000472D636F646520736C6963656420666FC5
:1013900072206120646966666572656E7420707281
:1013A000696E74657220747970652E20436F6E7457
:1013B000696E75653F00472D636F646520736C69C6
:1013C00063656420666F7220612064696666657279
:1013D000656E74207072696E7465722074797065C0
:1013E0002E20436F6E74696E75653F00472D636FE5
:1013F000646520736C6963656420666F7220612088
:10140000646966666572656E74207072696E746573
:101410007220747970652E20506C6561736520723E
:10142000652D736C69636520746865206D6F6465F4
:101430006C20616761696E2E205072696E74206342
:10144000616E63656C6C65642E0050726573732009
:101450006B6E6F6220746F207072656865617420B6
:101460006E6F7A7A6C6520616E6420636F6E74694A
:101470006E75652E00506C656173652070726573C2
:101480007320746865206B6E6F6220746F20756EB8
:101490006C6F61642066696C616D656E7400526585
:1014A0006D6F7665206F6C642066696C616D656E2A
:1014B0007420616E64207072657373207468652097
:1014C0006B6E6F6220746F207374617274206C6F26
:1014D0006164696E67206E65772066696C616D6511
:1014E0006E742E00616E6420707265737320746870
:1014F00065206B6E6F6200496E7365727420666959
:101500006C616D656E7400436F6C6F72206E6F74EA
:1015100020636F72726563740046696C616D656EFD
:1015200074206E6F74206C6F616465640043686141
:101530006E67656420636F72726563746C793F00D7
:101540004C6F6164696E6720636F6C6F72004368F3
:10155000616E676520737563636573732100506CFA
:1015600065617365206F70656E2069646C657220BB
:10157000616E642072656D6F76652066696C616D61
:10158000656E74206D616E75616C6C792E005761AB
:10159000732066696C616D656E7420756E6C6F6129
:1015A00064207375636365737366756C3F00506C7C
:1015B0006561736520757067726164652E004E65A4
:1015C00077206669726D77617265207665727369DE
:1015D0006F6E20617661696C61626C653A0057617B
:1015E0006974696E6720666F722050494E444120CD
:1015F00070726F626520636F6F6C696E6700437213
:101600006173682064657465637465642E20526537
:1016100073756D65207072696E743F0043726173FB
:10162000682064657465637465642E00457874721F
:10163000756465720043686F6F73652065787472B6
:10164000756465723A0043686F6F73652066696CF4
:10165000616D656E743A004E6F206D6F76652E0079
:101660005761697420666F7220757365722E2E2E15
:1016700000536F6D652070726F626C656D20656ED2
:10168000636F756E74657265642C205A2D6C657677
:10169000656C696E6720656E666F72636564202E87
:1016A0002E2E00537461626C6520616D6269656EF7
:1016B000742074656D706572617475726520323165
:1016C0002D323643206973206E6565646564206140
:1016D000207269676964207374616E642069732085
:1016E00072657175697265642E00506C6561736511
:1016F0002072756E2058595A2063616C696272615C
:1017000074696F6E2066697273742E0073746172EF
:10171000740A006164635F696E69740A000A204F8D
:10172000726967696E616C205072757361206933EC
:101730000A202020507275736120526573656172B2
:10174000636800436F6E74696E75652077697468AD
:1017500020616E6F7468657220626F7764656E3F9A
:1017600000250020202020202000202020202020D4
:101770000045524153494E4720616C6C20646174AE
:101780006100466163746F7279205245534554007D
:10179000466163746F7279205245534554004D4B36
:1017A000334D4D5532004C4F4D4B33002C014465A9
:1017B00063203136203230313900436F6D70696CEF
:1017C00065643A2000286E6F6E652C206465666142
:1017D000756C7420636F6E666967290044656320C9
:1017E000313620323031392031343A35353A3533DB
:1017F0000020332E382E312D323836390A0020554C
:10180000706C6F616420696E2070726F67726573AF
:101810007300205A3A0020593A0020583A004352A7
:101820004153485F44455445435445445859004347
:10183000524153485F44455445435445445900433D
:10184000524153485F444554454354454458004D24
:1018500032390045787465726E616C2053504920AE
:10186000666C6173680A573235583230434C2069D0
:1018700073206E6F74207265732D0A706F6E6469C9
:101880006E672E204C616E67756167650A737769B4
:1018900074636820756E617661696C61626C652E37
:1018A00000437261736844657465637420444953EE
:1018B00041424C45440043726173684465746563FA
:1018C0007420454E41424C45442100573235583230
:1018D00030434C206E6F7420726573706F6E646954
:1018E0006E672E0A002020506C616E6E6572427524
:1018F0006666657242797465733A200020467265A7
:1019000065204D656D6F72793A2000207C2041750D
:1019100074686F723A2000204C61737420557064B3
:10192000617465643A200020536F66747761726554
:1019300020526573657400205761746368646F6733
:10194000205265736574002042726F776E206F7548
:1019500074205265736574002045787465726E61F9
:101960006C20526573657400506F77657255700016
:101970006572726F722077726974696E6720746F16
:101980002066696C6500656E6473746F707320689F
:1019900069743A2000446F6E6520736176696E67E2
:1019A0002066696C652E006F6B004D4B33206669B5
:1019B000726D776172652064657465637465642017
:1019C0006F6E204D4B3353207072696E74657200D8
:1019D0005072757361207833204D4B33204F4B2E5E
:1019E00000426C61636B6F7574206F636375727214
:1019F00065642E205265636F766572207072696E21
:101A0000743F0053656C66746573742077696C6C01
:101A10002062652072756E20746F2063616C69624C
:101A200072617465206163637572617465207365AA
:101A30006E736F726C657373207265686F6D696E1B
:101A4000672E005468657265206973207374696C31
:101A50006C2061206E65656420746F206D616B651C
:101A6000205A2063616C6962726174696F6E2E2006
:101A7000506C6561736520666F6C6C6F772074685D
:101A800065206D616E75616C2C2063686170746592
:101A9000722046697273742073746570732C20739E
:101AA000656374696F6E2043616C69627261746909
:101AB0006F6E20666C6F772E005072696E7465725F
:101AC00020686173206E6F74206265656E206361AB
:101AD0006C69627261746564207965742E20506C43
:101AE0006561736520666F6C6C6F77207468652024
:101AF0006D616E75616C2C20636861707465722015
:101B000046697273742073746570732C20736563F7
:101B100074696F6E2043616C6962726174696F6E83
:101B200020666C6F772E004F6C6420736574746947
:101B30006E677320666F756E642E204465666175EE
:101B40006C74205049442C20457374657073206573
:101B500074632E2077696C6C206265207365742E27
:101B6000005761726E696E673A20626F7468207008
:101B700072696E746572207479706520616E64207C
:101B80006D6F74686572626F6172642074797065DC
:101B9000206368616E6765642E005761726E696EBE
:101BA000673A207072696E7465722074797065206E
:101BB0006368616E6765642E005761726E696E6757
:101BC0003A206D6F74686572626F61726420747917
:101BD0007065206368616E6765642E004375737479
:101BE0006F6D0054657874757200536D6F6F746813
:101BF0000047312059252D2E32662045252D2E33C4
:101C000066004731205825642059252D2E32662044
:101C100045252D2E33660044495341424C4544002E
:101C2000454E41424C4544000A004653656E736F71
:101C30007220255300504154393132355F696E6945
:101C4000743A256868750A00504154393132355F5D
:101C5000696E69743A256868750A005041543931D3
:101C60003235206E6F7420726573706F6E64696EAA
:101C7000672028256429210A00000E1315110E0083
:101C8000000004120912040000001C1F11111F00A3
:101C9000000006191803130C00040E1F041C00009A
:101CA00000040A0A0A0A11110E001F1511151F005F
:101CB00000000103161C0800000000110A04110AAC
:101CC000040C12120C000000002563252D31382E63
:101CD0003138532563005B25735D2563005B255315
:101CE0005D2563002563252D31382E3138530025BD
:101CF0002E31305320002563252D31382E31387395
:101D00002563002563252D2E31365320006673652B
:101D10006E736F725F6175746F6C6F61645F63681F
:101D200065636B5F7374617274202D206175746FCD
:101D30006C6F616420454E41424C45440A00667315
:101D4000656E736F725F6175746F6C6F61645F63F2
:101D50006865636B5F73746F70202D206175746F9D
:101D60006C6F61642044495341424C45440A007CF5
:101D70003C3E3F2F2A225C0022206661696C65642C
:101D80003A204275666665722066756C6C21002289
:101D900000256920686F757273202569206D696E52
:101DA000757465730054494D454F55543A004D3193
:101DB00031300046756C6C2052582042756666655D
:101DC0007200656E717565696E67202200446F6EE2
:101DD00065207072696E74696E672066696C650053
:101DE0004D3131322063616C6C65642E20456D6528
:101DF0007267656E63792053746F702E005072693C
:101E00006E7465722073746F70706564206475659C
:101E100020746F206572726F72732E20466978206D
:101E2000746865206572726F7220616E64207573CC
:101E300065204D39393920746F2072657374617271
:101E4000742E202854656D706572617475726520FA
:101E500069732072657365742E20536574206974EC
:101E60002061667465722072657374617274696E44
:101E70006729004E6F204C696E65204E756D626556
:101E800072207769746820636865636B73756D2C65
:101E9000204C617374204C696E653A20004E6F20AF
:101EA000436865636B73756D2077697468206C692E
:101EB0006E65206E756D6265722C204C61737420A6
:101EC0004C696E653A2000636865636B73756D20BD
:101ED0006D69736D617463682C204C617374204C60
:101EE000696E653A20004C696E65204E756D6265BD
:101EF00072206973206E6F74204C617374204C697A
:101F00006E65204E756D6265722B312C204C6173AD
:101F100074204C696E653A200053544F505045442C
:101F20002E200058595A2063616C6962726174698D
:101F30006F6E20616C6C2072696768742E20536B21
:101F400065772077696C6C20626520636F727265BB
:101F500063746564206175746F6D61746963616C2D
:101F60006C792E0058595A2063616C6962726174F1
:101F7000696F6E20616C6C2072696768742E2058DE
:101F80002F5920617865732061726520736C6967D1
:101F900068746C7920736B657765642E20476F6F6A
:101FA00064206A6F62210058595A2063616C69622B
:101FB000726174696F6E206F6B2E20582F592061EB
:101FC000786573206172652070657270656E6469F2
:101FD00063756C61722E20436F6E67726174756CED
:101FE0006174696F6E73210058595A2063616C697E
:101FF00062726174696F6E206661696C65642E201F
:1020000052696768742066726F6E742063616C69D0
:1020100062726174696F6E20706F696E74206E6F8A
:102020007420726561636861626C652E0058595A4C
:102030002063616C6962726174696F6E20666169A8
:102040006C65642E2046726F6E742063616C6962E9
:10205000726174696F6E20706F696E7473206E6F39
:102060007420726561636861626C652E0058595A0C
:102070002063616C6962726174696F6E2066616968
:102080006C65642E20506C6561736520636F6E73A0
:10209000756C7420746865206D616E75616C2E00BE
:1020A00058595A2063616C6962726174696F6E205D
:1020B000636F6D70726F6D697365642E205269670E
:1020C00068742066726F6E742063616C69627261FD
:1020D00074696F6E20706F696E74206E6F742072F9
:1020E0006561636861626C652E0058595A206361AE
:1020F0006C6962726174696F6E20636F6D70726F6C
:102100006D697365642E2046726F6E742063616C16
:102110006962726174696F6E20706F696E7473208A
:102120006E6F7420726561636861626C652E005821
:10213000595A2063616C6962726174696F6E2066BE
:1021400061696C65642E204265642063616C69621C
:10215000726174696F6E20706F696E74207761733D
:10216000206E6F7420666F756E642E00506C656112
:10217000736520706C61636520737465656C207392
:1021800068656574206F6E20686561746265642E91
:102190000044697374616E63652062657477656578
:1021A0006E20746970206F6620746865206E6F7A87
:1021B0007A6C6520616E64207468652062656420B5
:1021C0007375726661636520686173206E6F742039
:1021D0006265656E20736574207965742E20506C7D
:1021E0006561736520666F6C6C6F7720746865201D
:1021F0006D616E75616C2C2063686170746572200E
:1022000046697273742073746570732C20736563F0
:1022100074696F6E204669727374206C617965729F
:102220002063616C6962726174696F6E2E00506C1C
:102230006163652061207368656574206F66207036
:102240006170657220756E64657220746865206EB9
:102250006F7A7A6C6520647572696E672074686540
:102260002063616C6962726174696F6E206F6620B1
:102270006669727374203420706F696E74732E20D7
:10228000496620746865206E6F7A7A6C6520636198
:102290007463686573207468652070617065722C62
:1022A00020706F776572206F666620746865207095
:1022B00072696E74657220696D6D656469617465BB
:1022C0006C792E00506C656173652072656D6F7658
:1022D0006520737465656C2073686565742066722B
:1022E0006F6D20686561746265642E0049732073A8
:1022F0007465656C207368656574206F6E20686511
:1023000061746265643F00206F662034005365612C
:10231000726368696E67206265642063616C6962DC
:10232000726174696F6E20706F696E7400206F66E1
:102330002039004D6561737572696E67207265663C
:102340006572656E636520686569676874206F668D
:102350002063616C6962726174696F6E20706F696D
:102360006E7400506C6561736520636C65616E20EE
:10237000746865206E6F7A7A6C6520666F72206370
:10238000616C6962726174696F6E2E20436C69635F
:102390006B207768656E20646F6E652E00417574E2
:1023A0006F20686F6D650078797A63616C5F6D6529
:1023B0006173737572655F656E7465720A00787912
:1023C0007A63616C5F73706972616C382063783D09
:1023D00025642063793D2564207A303D256420649E
:1023E0007A3D2564207261646975733D25642061BE
:1023F000643D25640A0078797A63616C5F73656176
:102400007263685A206E6F207369676E616C0A2070
:10241000783D256C6420793D256C64207A3D256CDF
:10242000640A00204F4E2D5349474E414C206174A1
:1024300020783D256420793D2564207A3D2564205F
:1024400061643D25640A0078797A63616C5F736525
:10245000617263685A20783D256C6420793D256C53
:1024600064207A3D256C640A000A00253032780029
:1024700078797A63616C5F7363616E5F70697865A8
:102480006C735F33327833322063783D2564206388
:10249000793D2564206D696E5F7A3D2564206D610C
:1024A000785F7A3D25640A00202532642025640A7D
:1024B000000A002530327800206D696E3D256420C9
:1024C0006D61783D2564206469663D25640A006D70
:1024D00061785F633D253264206D61785F6C3D25D6
:1024E000640A006D61785F633D2564206D61785FEB
:1024F000723D2564206D61785F6D617463683D2570
:10250000640A0020783D256420793D2564207A3DC9
:1025100025640A00207061747465726E20666F75A0
:102520006E642061742025642025640A000000F098
:1025300000F801FC03FE07FE07FE07FE07FC03F898
:1025400001F000000073697A656F6628746F74612A
:102550006C293D25640A0073697A656F6628626C90
:102560006F636B5F627566666572293D25640A005C
:1025700078797A63616C5F6D656173737572655F9D
:102580006C656176650A00706F696E743D25642024
:10259000783D256420793D2564207A3D25640A0034
:1025A00058025802584D584DB004F055F055B0043B
:1025B00078797A63616C5F66696E645F6265645F97
:1025C000696E64756374696F6E5F73656E736F7245
:1025D0005F706F696E745F787920783D256C642038
:1025E000793D256C64207A3D256C640A00203C20EE
:1025F000005741524E494E473A2046726F6E742042
:10260000706F696E74206E6F7420726561636861AB
:10261000626C652E205920636F6F7264696E6174FD
:10262000653A0000000040410000C04000005C43EB
:102630000000C04000005C430000464300004041F1
:1026400000004643497465726174696F6E3A2000F8
:1026500043616C6962726174696F6E206661696C56
:1026600065642120436865636B2074686520617828
:10267000657320616E642072756E20616761696E9A
:102680002E0055564C4F202D20656E642025640A7F
:10269000007374707325640A00776F726C64206332
:1026A0006F6F7264696E617465733A2028252E33EA
:1026B000662C20252E33662C20252E3366290A0011
:1026C000706879736963616C20636F6F7264696E9F
:1026D000617465733A2028252E33662C20252E330D
:1026E000662C20252E3366290A0043757272656EAA
:1026F0007420706F73205A5F415849533A252E3326
:10270000660A43757272656E7420706F7320455F40
:10271000415849533A252E33660A00416674657262
:102720002077616974696E6720666F722074656DC9
:10273000703A0A43757272656E7420706F73205818
:102740005F415849533A252E33660A4375727265C4
:102750006E7420706F7320595F415849533A252E8B
:1027600033660A00494E5434007265636F766572B1
:102770005F6D616368696E655F73746174655F61E5
:10278000667465725F706F7765725F70616E6963A2
:102790002C20696E697469616C20007265636F76C4
:1027A00065725F6D616368696E655F73746174659E
:1027B0005F61667465725F706F7765725F70616E7E
:1027C00069632C20696E697469616C200047393235
:1027D00020450050525553412075766C6F004734A8
:1027E000205330004D32362053256C75004D31306A
:1027F000362053004D3832004D323230205325649C
:10280000004731204625640047312045322A64655F
:102810006661756C745F72657472616374696F6E02
:102820002046343830004731205A002046323030BC
:10283000300020590047312058004D383300506F88
:10284000736974696F6E20726561642066726F6D62
:1028500020656570726F6D3A004D3233202573002C
:102860002E67636F002C20666565646D756C7469F6
:10287000706C793A0046656564726174653A004728
:102880003120452D64656661756C745F7265747284
:10289000616374696F6E20463438300047312045DB
:1028A000352046313230004D3833004D313930203B
:1028B000532564004D3130392053256400473238A8
:1028C00020582059004731205A32352046383030C0
:1028D000004731205A252D302E33662046252D30D5
:1028E0002E33660047312045252D302E3366204695
:1028F00032373030004D3833000000211042206361
:10290000308440A550C660E770088129914AA16BC8
:10291000B18CC1ADD1CEE1EFF13112100273325260
:1029200022B5529442F772D662399318837BB35A18
:10293000A3BDD39CC3FFF3DEE36224433420040130
:1029400014E664C774A44485546AA54BB528850968
:1029500095EEE5CFF5ACC58DD55336722611163000
:1029600006D776F6669556B4465BB77AA7199738B8
:1029700087DFF7FEE79DD7BCC7C448E5588668A740
:10298000784008611802282338CCC9EDD98EE9AF08
:10299000F9488969990AA92BB9F55AD44AB77A96A0
:1029A0006A711A500A333A122AFDDBDCCBBFFB9E58
:1029B000EB799B588B3BBB1AABA66C877CE44CC570
:1029C0005C222C033C600C411CAEED8FFDECCDCDA8
:1029D000DD2AAD0BBD688D499D977EB66ED55EF440
:1029E0004E133E322E511E700E9FFFBEEFDDDFFCF8
:1029F000CF1BBF3AAF599F788F8891A981CAB1EB9D
:102A0000A10CD12DC14EF16FE18010A100C230E3C5
:102A1000200450254046706760B9839893FBA3DA81
:102A2000B33DC31CD37FE35EF3B1029012F322D215
:102A3000323542145277625672EAB5CBA5A8958911
:102A4000856EF54FE52CD50DC5E234C324A0148165
:102A5000046674476424540544DBA7FAB79987B821
:102A6000975FE77EF71DC73CD7D326F2369106B0B5
:102A70001657667676154634564CD96DC90EF92F21
:102A8000E9C899E9898AB9ABA94458654806782705
:102A900068C018E1088238A3287DCB5CDB3FEB1EC1
:102AA000FBF98BD89BBBAB9ABB754A545A376A1655
:102AB0007AF10AD01AB32A923A2EFD0FED6CDD4D51
:102AC000CDAABD8BADE89DC98D267C076C645C45A5
:102AD0004CA23C832CE01CC10C1FEF3EFF5DCF7C61
:102AE000DF9BAFBABFD98FF89F176E367E554E74F5
:102AF0005E932EB23ED10EF01E5265636F76657204
:102B0000696E67207072696E7420202020006572E3
:102B1000726F723A20756E6B6E6F776E206D6F7686
:102B2000650A006E6F206D6F76650A00542D636F25
:102B300064650A00756E6C6F61640A006C6F616495
:102B40000A006D6D755F6765745F726573706F6E97
:102B50007365202D20626567696E206D6F76653A1A
:102B600020006D6D755F6765745F726573706F6E61
:102B7000736528292072657475726E696E673A20D4
:102B800025640A00556E6C6F6164696E6720666922
:102B90006E697368656420320A00556E6C6F6164FB
:102BA00020320A00556E6C6F6164696E6720666939
:102BB0006E697368656420310A00556E6C6F6164DC
:102BC00020310A004D4D5520737461727473207268
:102BD0006573706F6E64696E670A004D4D55206EA7
:102BE0006F7420726573706F6E64696E670A004659
:102BF000696C616D656E74206F7574206F662072EC
:102C0000616E6765202564200A000000803F5555ED
:102C100085410000803F0000C8410000004055553C
:102C200005420000C03F00004842000020405555CA
:102C30008542000070C1ABAAA642000060C100003E
:102C4000A0410000C0C00000204100002041ABAA0C
:102C50003A41000020C15555D540000048C25555A5
:102C600005424D373031204534004D373031204555
:102C700033004D373031204532004D37303120455B
:102C800031004D3730312045300046696C616D654B
:102C90006E74206E72206F7574206F662072616E84
:102CA00067652100206661696C65642E002073757C
:102CB000636365656465642E004D4D552063616EE8
:102CC0005F6C6F61643A004164646974696F6E613E
:102CD0006C206C6F616420617474656D7074206E1B
:102CE000722E2025640A00773235783230636C5FAB
:102CF00063666D0A00773235783230636C5F656EDB
:102D00007465720A004D4D55204F4B2E205265734D
:102D1000756D696E672E2E2E004D4D55204F4B2E32
:102D200020526573756D696E6720706F7369746981
:102D30006F6E2E2E2E004D4D55204F4B2E2052657E
:102D400073756D696E672074656D706572617475F9
:102D500072652E2E2E00466978207468652069738E
:102D600073756520616E64207468656E207072658D
:102D7000737320627574746F6E206F6E204D4D55A5
:102D800020756E69742E00507265737320746865C7
:102D9000206B6E6F6220746F20726573756D652095
:102DA0006E6F7A7A6C652074656D7065726174758A
:102DB00072652E004D4D55206E65656473207573E8
:102DC000657220617474656E74696F6E2E00506C4C
:102DD000656173652072656D6F76652066696C61EB
:102DE0006D656E7420616E64207468656E2070720B
:102DF00065737320746865206B6E6F622E00456A80
:102E0000656374696E672066696C616D656E7400D8
:102E10004D4D55206C6F6164206661696C6564205E
:102E2000202020200025632533642F25642563009E
:102E3000544D4320445249564552204F5645525412
:102E4000454D500025632533642F25642563005AC2
:102E500025362E326620005A2020202D2D2D2000D0
:102E600025632533642525002533686864002533F0
:102E70005325337325250055534200202020002080
:102E80005344002025753E257500203F3E257500E2
:102E9000204625750020463F002046302020002592
:102EA000632D2D3A2D2D20200025632533756820B4
:102EB00025632563002563253032753A2530327548
:102EC0002563256300726573756C742076616C757B
:102ED000653A2025640A0020693D25326420636E2E
:102EE000743D2532642076616C3D2532640A0063AE
:102EF0006C7573746572733A0A0020693D253264FB
:102F000020737465703D2532640A00736F727465B6
:102F1000642073616D706C65733A0A002573003A22
:102F2000200025642F3600252D323053002020202C
:102F30002020202020202020202020202020202091
:102F400000203A20002020202020202020202020A7
:102F500020202020202020202000252D323073002A
:102F60002020202020202020202020202000257329
:102F70000050494E44412048656174696E670043C2
:102F8000616C6962726174696F6E20646F6E650056
:102F900043616C6962726174696E67205A004265B0
:102FA0006420646F6E6500426564204865617469E1
:102FB0006E670048656174696E6720646F6E652E88
:102FC0000048656174696E6700506C6561736520C7
:102FD0006C6F61642066696C616D656E74206669F2
:102FE0007273742E0049732066696C616D656E742E
:102FF000206C6F616465643F0043616E63656C00C3
:1030000046696C616D656E740053656C6563742010
:1030100066696C616D656E743A0052756E6E696EAC
:10302000672057697A6172642077696C6C206465E7
:103030006C6574652063757272656E742063616C73
:103040006962726174696F6E20726573756C7473F6
:1030500020616E642073746172742066726F6D20DB
:1030600074686520626567696E6E696E672E2043BD
:103070006F6E74696E75653F005072656865617446
:10308000696E67206E6F7A7A6C652E20506C656170
:10309000736520776169742E004C6F6164696E6797
:1030A0002066696C616D656E7400506C6561736556
:1030B00020696E736572742066696C616D656E74EB
:1030C00020696E746F207468652065787472756409
:1030D00065722C207468656E20707265737320743D
:1030E0006865206B6E6F6220746F206C6F61642066
:1030F00069742E00506C6561736520696E7365722A
:10310000742066696C616D656E7420696E746F20E1
:103110007468652066697273742074756265206FC7
:103120006620746865204D4D552C207468656E20AE
:10313000707265737320746865206B6E6F622074A3
:103140006F206C6F61642069742E00546865207074
:1031500072696E7465722077696C6C207374617229
:1031600074207072696E74696E672061207A696775
:103170002D7A6167206C696E652E20526F746174C0
:103180006520746865206B6E6F6220756E74696C63
:1031900020796F7520726561636820746865206F9F
:1031A0007074696D616C206865696768742E20436E
:1031B0006865636B207468652070696374757265F7
:1031C0007320696E207468652068616E64626F6F39
:1031D0006B202843616C6962726174696F6E206351
:1031E000686170746572292E0053656C6563742084
:1031F00074656D7065726174757265207768696356
:1032000068206D61746368657320796F7572206DD5
:103210006174657269616C2E0043686F6F7365201D
:10322000612066696C616D656E7420666F722074D2
:103230006865204669727374204C61796572204319
:10324000616C6962726174696F6E20616E64207373
:10325000656C65637420697420696E2074686520EC
:103260006F6E2D73637265656E206D656E752E00D1
:103270004E6F7720492077696C6C2063616C6962BE
:10328000726174652064697374616E636520626540
:10329000747765656E20746970206F662074686548
:1032A000206E6F7A7A6C6520616E64206865617447
:1032B00062656420737572666163652E00596F756F
:1032C0002063616E20616C7761797320726573751C
:1032D0006D65207468652057697A61726420667232
:1032E0006F6D2043616C6962726174696F6E202D2D
:1032F0003E2057697A6172642E00506C6561736577
:1033000020636865636B206F75722068616E64620C
:103310006F6F6B20616E6420666978207468652029
:1033200070726F626C656D2E205468656E207265D8
:1033300073756D65207468652057697A61726420C1
:103340006279207265626F6F74696E672074686558
:10335000207072696E7465722E00416C6C20697306
:1033600020646F6E652E20486170707920707269DC
:103370006E74696E672100496620796F75206861F7
:103380007665206164646974696F6E616C20737422
:1033900065656C207368656574732C2063616C6966
:1033A00062726174652074686569722070726573F9
:1033B00065747320696E2053657474696E67732039
:1033C0002D204857205365747570202D2053746547
:1033D000656C207368656574732E00506C6561734D
:1033E0006520636C65616E20686561746265642048
:1033F000616E64207468656E2070726573732074EA
:103400006865206B6E6F622E00446F20796F7520A7
:1034100077616E7420746F20726570656174206CC2
:10342000617374207374657020746F2072656164B9
:103430006A7573742064697374616E636520626574
:10344000747765656E206E6F7A7A6C6520616E6444
:1034500020686561746265643F0053656C656374E0
:10346000206E6F7A7A6C6520707265686561742071
:1034700074656D70657261747572652077686963D3
:1034800068206D61746368657320796F7572206D53
:103490006174657269616C2E0049732066696C61A4
:1034A0006D656E74206C6F616465643F00497320C4
:1034B00066696C616D656E74206C6F616465643FF4
:1034C000004E6F7720492077696C6C2070726568B8
:1034D000656174206E6F7A7A6C6520666F72205019
:1034E0004C412E00492077696C6C2072756E207AF1
:1034F0002063616C6962726174696F6E206E6F77B0
:103500002E004E6F772072656D6F7665207468654A
:103510002074657374207072696E742066726F6DAA
:1035200020737465656C2073686565742E00506C3B
:10353000656173652072656D6F766520736869706B
:1035400070696E672068656C706572732066697259
:1035500073742E00492077696C6C2072756E207828
:10356000797A2063616C6962726174696F6E206E32
:103570006F772E2049742077696C6C2074616B65BD
:1035800020617070726F782E203132206D696E73F9
:103590002E0046697273742C20492077696C6C2068
:1035A00072756E207468652073656C6674657374DB
:1035B00020746F20636865636B206D6F7374206384
:1035C0006F6D6D6F6E20617373656D626C792070C5
:1035D000726F626C656D732E0048692C2049206102
:1035E0006D20796F7572204F726967696E616C200A
:1035F0005072757361206933207072696E746572E0
:103600002E20576F756C6420796F75206C696B651F
:10361000206D6520746F20677569646520796F750A
:10362000207468726F7567682074686520736574AC
:1036300075702070726F636573733F00452D636F03
:1036400072726563743A005A2D636F7272656374A7
:103650003A00592D636F72726563743A00582D6396
:103660006F72726563743A0053706F6F6C4A6F6962
:103670006E004669726D77617265004D6F64656CAE
:1036800000537472696374005761726E004857206A
:103690005365747570004857205365747570004306
:1036A0006865636B73004E6F7A7A6C6520642E00D8
:1036B000537465656C20736865657473004E6F6E36
:1036C0006500416C7068616265740054696D6500E5
:1036D000536F727400466C617368416972005344A1
:1036E00020636172640052506920706F72740054DC
:1036F000656D702E2063616C2E004C696E2E206308
:103700006F7272656374696F6E004D6573682062D5
:103710006564206C6576656C696E67004857205358
:10372000657475700046616E7320636865636B0035
:10373000462E206175746F6C6F616400446973611B
:10374000626C65207374657070657273004D6F767E
:103750006520617869730054656D70657261747578
:1037600072650054656D702E2063616C69627261D0
:1037700074696F6E0052657365742058595A2063DE
:10378000616C6962722E005049442063616C696209
:10379000726174696F6E00426564206C6576656C59
:1037A00020636F7272656374004D657368204265B3
:1037B00064204C6576656C696E670043616C696274
:1037C00072617465205A0043616C6962726174654C
:1037D0002058595A0053656C667465737420202014
:1037E0002020202020200042656C742074657374B2
:1037F00020202020202020200057697A6172640058
:1038000057697A61726420656E64207374617465AF
:103810003A2025640A0057697A61726420737461E2
:1038200074653A2025640A0044697361626C6520FE
:103830006661726D206D6F6465004661726D206E09
:10384000756D626572004D3834004D343400473276
:10385000382057004739390044697361626C65202C
:103860006661726D206D6F64653F00252D392E39BC
:10387000535B002563252D31382E313873256300C5
:103880004661726D206E756D626572004D36303026
:10389000004C6F616420616C6C00456A6563742044
:1038A00066696C616D656E7400506C65617365204E
:1038B00070756C6C206F75742066696C616D656ED7
:1038C0007420696D6D6564696174656C7900556E0D
:1038D0006C6F6164696E672066696C616D656E749A
:1038E00000526573756D696E67207072696E740041
:1038F00052657365740052656E616D65004669724C
:103900007374206C617965722063616C2E0053655D
:103910006C65637400537465656C207368656574C9
:103920007300536865657400537570706F7274002E
:103930004661696C207374617473204D4D55004667
:1039400061696C207374617473005374617469737A
:103950007469637320200043616C696272617469E9
:103960006F6E004175746F4C6F61642066696C61A5
:103970006D656E7400456A6563742066696C616D7F
:10398000656E7400556E6C6F61642066696C616D64
:10399000656E74004C6F616420746F206E6F7A7A6C
:1039A0006C65004C6F61642066696C616D656E7456
:1039B000004E6F2053442063617264005072696E40
:1039C000742066726F6D20534400526573756D6587
:1039D000207072696E740050617573652070726931
:1039E0006E7400526573756D65207072696E740037
:1039F000507265686561740054756E65004C697637
:103A0000652061646A757374205A00496E666F2080
:103A100073637265656E0046696E697368696E6787
:103A2000206D6F76656D656E7473004272696768AC
:103A3000746E657373004173736973740053696CBA
:103A4000656E74004F6E6365004C6F756400536F54
:103A5000756E64004D4D55204D6F64650043726175
:103A60007368206465742E00537465616C7468001B
:103A70004E6F726D616C0046616E732063686563A2
:103A80006B0046696C2E2073656E736F720043681D
:103A9000616E67652066696C616D656E7400466C69
:103AA0006F77005370656564004E2F41004D61676C
:103AB0006E65747320636F6D702E004F6666004FE5
:103AC0006E005A2D70726F6265206E722E004D6509
:103AD00073680054696D656F757400427269676838
:103AE00074004D6F6465004175746F0044696D002A
:103AF0004C6576656C2044696D6D6564004C657637
:103B0000656C204272696768740046616E2073704C
:103B100065656400426564004E6F7A7A6C65005397
:103B2000657474696E6773004572723A2050524929
:103B30004E542046414E204552524F52004572721B
:103B40003A20455854522E2046414E204552524F5D
:103B500052002F2F20616374696F6E3A726573751E
:103B60006D656400507265686561742074686520D5
:103B70006E6F7A7A6C6521004552524F523A004678
:103B8000696C616D656E7420657874727564696EB8
:103B9000672026207769746820636F72726563748A
:103BA00020636F6C6F723F004175746F6C6F61645E
:103BB000696E672066696C616D656E74206973203B
:103BC0006163746976652C206A7573742070726500
:103BD000737320746865206B6E6F6220616E642061
:103BE000696E736572742066696C616D656E742EA2
:103BF0002E2E00546F74616C207072696E74207484
:103C0000696D6500546F74616C2066696C616D65E7
:103C10006E74005072696E742074696D6500466937
:103C20006C616D656E7420757365640052696768B8
:103C300074004C65667400592064697374616E6326
:103C4000652066726F6D206D696E005365766572D2
:103C50006520736B65773A00536C696768742073ED
:103C60006B65773A004D6561737572656420736B9F
:103C70006577005B303B305D20706F696E74206F3C
:103C800066667365740041646A757374696E672053
:103C90005A3A005265736574005265617220736907
:103CA0006465205B756D5D0046726F6E742073698C
:103CB00064655B756D5D0052696768742073696443
:103CC000655B756D5D004C65667420736964652085
:103CD0005B756D5D005365742074656D7065726110
:103CE000747572653A0054656D70657261747572B1
:103CF000652063616C6962726174696F6E206661D0
:103D0000696C65640054656D706572617475726587
:103D10002063616C6962726174696F6E20697320DF
:103D200066696E697368656420616E64206163749E
:103D30006976652E2054656D702E2063616C696212
:103D4000726174696F6E2063616E206265206469C0
:103D50007361626C656420696E206D656E752053B9
:103D6000657474696E67732D3E54656D702E2063A3
:103D7000616C2E0049523A0046494E44413A005087
:103D8000494E44413A0053656E736F7220737461FB
:103D900074650025533A0A2531372E32666D20208E
:103DA0000A25533A0A25376C6464203A253268683C
:103DB0006468203A2530326868646D0025533A0AF9
:103DC0002531372E32666D20200A25533A0A2532D6
:103DD000646820253032646D2025303264730025FC
:103DE000362E32666D6D0025533A0A25530A255347
:103DF0003A0A25533A0025332E3266010025533AFC
:103E00000A25530A252D31352E31355325332E32CF
:103E100066010A252D31352E31355325332E326674
:103E200001002020300020203100252D31322E319C
:103E30003253252B382E31660045787472756465CF
:103E4000723A006D6D0059005800583A00593A0016
:103E50005A3A002563252D31332E313353252B3526
:103E60002E33660020003E003E0020003E003E0053
:103E700054656D70657261747572652063616C69FB
:103E800062726174696F6E206661696C65642E2070
:103E9000436F6E74696E75652077697468207072FF
:103EA000657373696E6720746865206B6E6F622E30
:103EB0000054656D70657261747572652063616C24
:103EC0006962726174696F6E20646F6E652E204343
:103ED0006F6E74696E75652077697468207072659D
:103EE0007373696E6720746865206B6E6F622E0055
:103EF000504154393132355F5245535F593D256841
:103F000068750A00504154393132355F5245535F6C
:103F1000583D256868750A00555341525432207245
:103F2000782046756C6C2121210A005365747469F0
:103F30006E67732053746F7265640053746F72659B
:103F4000642073657474696E677320726574726936
:103F5000657665640048617264636F6465642044DB
:103F6000656661756C742053657474696E6773203F
:103F70004C6F6164656400563200000000C8420066
:103F800000C8420000C84300008C430000484300C2
:103F9000004843000040410000F042E8030000E810
:103FA000030000C80000008813000000409C44008B
:103FB000409C440000000000000000204E00000073
:103FC00000204100002041CDCCCC3E00002040002C
:103FD0000000000000000000000000CDCCCC3E3D01
:103FE0000A8141FF08433EB099AB438F42FC42E651
:103FF0005A343F4C62B045000000000040400000D1
:1040000034420000000000000000000000410000F9
:1040100000E03F0000C8420000C8420000404100EC
:1040200000F042C0030000C0030000C80000008888
:1040300013000010101020627573793A20706175BA
:1040400073656420666F7220696E707574006275A6
:1040500073793A2070617573656420666F7220759C
:1040600073657200627573793A2070726F6365735D
:1040700073696E670000007F430080544300005264
:104080004300000000000080C09A99193E00000023
:1040900000000080C09A99193E4578747275646575
:1040A00072004D6F7665205A004D6F76652059007D
:1040B0004D6F7665205800437261736820646574A3
:1040C000656374696F6E2063616E0A626520747542
:1040D000726E6564206F6E206F6E6C7920696E0A57
:1040E0004E6F726D616C206D6F6465005741524E6A
:1040F000494E473A0A437261736820646574656388
:1041000074696F6E0A64697361626C656420696EBC
:104110000A537465616C7468206D6F646500417545
:10412000746F6C6F6164696E672066696C616D6540
:104130006E7420617661696C61626C65206F6E6C73
:1041400079207768656E2066696C616D656E742094
:1041500073656E736F72206973207475726E656417
:10416000206F6E2E2E2E004552524F523A20466935
:104170006C616D656E742073656E736F7220697308
:10418000206E6F7420726573706F6E64696E672C39
:1041900020706C6561736520636865636B20636F75
:1041A0006E6E656374696F6E2E004D6F646520637B
:1041B00068616E676520696E2070726F67726573E3
:1041C00073202E2E2E0043616C696272617465004B
:1041D000536865657420252E37730A5A206F66660A
:1041E0007365743A20252B312E3366206D6D0A25B8
:1041F00063436F6E74696E75650A256353746172EB
:10420000742066726F6D207A65726F0047383000D7
:104210004D3435004D3435205A004737360025637C
:10422000252E3135533A2573253364004578726560
:104230006D65207370616E206F6620746865205A0A
:104240002076616C75657321006F6B0A0073746171
:1042500072740A004D4D5532206669726D77617235
:10426000652076657273696F6E20696E76616C6920
:10427000642E20526571756972656420766572736B
:10428000696F6E3A206275696C64206E756D626547
:1042900072202564206F72206869676865722E003D
:1042A0006673656E736F725F636865636B706F6969
:1042B0006E745F7072696E740A004D4D55203D3EFC
:1042C00020276F6B270A004D4D55203D3E20276F5C
:1042D0006B270A002564004D4D55203D3E20276F79
:1042E0006B272C20726573756D65207072696E7412
:1042F0000A004D4D552072657472792061747465A1
:104300006D7074206E722E2025640A004D4D55206C
:104310003D3E20276F6B270A00410A004D4D552076
:104320003C3D202741270A004D363030004D3630C5
:1043300030204155544F002568687500410A004DF2
:104340004D55203C3D202741270A0050300A004DA2
:1043500025640A004D4D55203C3D20274D256427FE
:104360000A0057300A004D4D55203C3D202757305C
:10437000270A0053330A004D4D55203C3D2027535A
:1043800033270A0052300A004D4D55203C3D20276E
:104390005230270A004B25640A004D4D55203C3D04
:1043A00020274B2564270A004525640A004D4D55FA
:1043B000203C3D2027452564270A0055300A004D42
:1043C0004D55203C3D20275530270A0043300A0038
:1043D0004D4D55203C3D20274330270A004C256495
:1043E0000A004D4D55203C3D20274C2564270A00EE
:1043F0005425640A004D4D55203C3D20275425642A
:10440000270A004D4D55202D20454E41424C454434
:1044100000256868750050300A004D310A004D4D86
:1044200055203C3D20274D31270050300A004D4D8E
:10443000552076657273696F6E2076616C696400D1
:104440004D4D55203D3E202725646F6B270A0025E2
:10445000750053320A004D4D55203C3D2027533204
:1044600027004D4D55203D3E202725646F6B270AC0
:10447000002575004D4D55206E6F74207265737068
:104480006F6E64696E67202D2044495341424C454C
:10449000440053310A004D4D55203C3D20275331F7
:1044A00027004D4D55203D3E2027737461727427BF
:1044B00000426564206C6576656C696E6720666194
:1044C000696C65642E2053656E736F722064696435
:1044D0006E7420747269676765722E20446562721B
:1044E0006973206F6E206E6F7A7A6C653F2057611A
:1044F0006974696E6720666F722072657365742EC9
:1045000000506C6561736520757064617465206628
:1045100069726D7761726520696E20796F7572209E
:104520004D4D55322E2057616974696E6720666F54
:10453000722072657365742E0024F4D43050C38EDB
:1045400020C2A24017828B7011127A910D816CD912
:104550000AA861E108C7586607615143061E4B5D12
:1045600005C145A7041A411104093D980371393169
:10457000034036DB0265339102D4305402802E1D95
:1045800002632CEE01752AC501B028A00110278115
:10459000018F2564012B244B01E0223401AC211F43
:1045A000018D200D01801FFC00841EED00971DDF92
:1045B00000B81CD200E61BC600201BBC00641AB267
:1045C00000B219A8000A19A0006A189900D1179121
:1045D0000040178B00B516840031167E00B31579A4
:1045E000003A157300C7146F0058146A00EE136682
:1045F000008813630025135E00C7125B006C12571E
:104600000015125400C111510070114F0021114BBF
:1046100000D61049008D1047004610440002104299
:1046200000C00F4000800F3E00420F3C00060F3BD1
:1046300000CB0E3800930E37005C0E3500270E3489
:1046400000F30D3200C10D3100900D3000600D2ED1
:1046500000320D2D00050D2C00D90C2B00AE0C29BD
:1046600000850C29005C0C2700350C27000E0C2659
:1046700000E80B2400C40B2400A00B23007D0B23B7
:10468000005A0B2100390B2100180B2000F80A1FDB
:1046900000D90A1E00BB0A1E009D0A1D00800A1DCB
:1046A00000630A1C00470A1B002C0A1B00110A1A8F
:1046B00000F7091A00DD091900C4091900AB09192E
:1046C00000920917007B091800630917004C0916AE
:1046D0000036091600200916000A091500F508150C
:1046E00000E0081400CC081400B8081400A4081452
:1046F00000900813007D0812006B08130058081280
:104700000046081200340811002308110012081195
:104710000001081100F0071000E0071000D007109A
:1047200000C0071000B0070F00A107100091070E8E
:104730000083070F0074070F0065070E0057070E70
:104740000049070E003B070D002E070E0020070D45
:104750000013070D0006070D00F9060C00ED060D0D
:1047600000E0060C00D4060C00C8060C00BC060CC9
:1047700000B0060C00A4060B0099060C008D060B79
:104780000082060B0077060B006C060B0061060A20
:104790000057060B004C060A0042060A0038060ABB
:1047A000002E060A0024060A001A060A001006094E
:1047B0000007060A00FD050900F4050900EB0509DC
:1047C00000E2050900D9050900D0050900C705095F
:1047D00000BE050900B5050800AD050800A50509DE
:1047E000009C050800940508008C05080084050855
:1047F000007C050800740508006C050700650508C5
:10480000005D050700560508004E0507004705072F
:10481000004005080038050700310507002A050794
:1048200000230507001C050600160507000F0507F5
:10483000000805060002050700FB040600F5040752
:1048400000EE040600E8040600E2040700DB0406AC
:1048500000D5040600CF040600C9040600C3040600
:1048600000BD040600B7040600B1040500AC040650
:1048700000A6040600A00405009B0406009504059C
:1048800000900406008A04050085040500800406E3
:10489000007A04050075040500700405006B04052A
:1048A0000066040500610405005C0405005704056A
:1048B00000520405004D04050048040500430405AA
:1048C000003E0404003A04050035040500300404E9
:1048D000002C04050027040400230405001E040422
:1048E000001A04040016040500110404000D040459
:1048F00000090405000404040000040400FC03048F
:1049000000F8030400F4030400F0030400EC0304C3
:1049100000E8030400E4030400E0030400DC0304F3
:1049200000D8030400D4030400D0030400CC030423
:1049300000C8030300C503030024F404D9201BC4EA
:104940000C5C0E9804C4095F0265077101F405F957
:1049500000FB04B30048048700C1036900580355F5
:104960000003034500BE023A008402310053022ACC
:10497000002902250004022000E4011C00C80119DE
:1049800000AF011700980114008401130071011099
:10499000006101100051010E0043010D0036010BB2
:1049A000002B010B0020010B00150109000C01096F
:1049B0000003010800FB000800F3000800EB0007FB
:1049C00000E4000600DE000600D8000600D2000663
:1049D00000CC000500C7000500C2000500BD0004B2
:1049E00000B9000400B5000400B1000400AD0004EB
:1049F00000A9000400A5000300A20003009F00041A
:104A0000009B000300980003009500020093000340
:104A100000900003008D0002008B0003008800025C
:104A2000008600020084000300810002007F000273
:104A3000007D0002007B0002007900020077000187
:104A40000076000200740002007200010071000292
:104A5000006F0002006D0001006C0002006A00019E
:104A600000690002006700010066000100650001A6
:104A700000640002006200010061000100600001AA
:104A8000005F0002005D0001005C0001005B0001AE
:104A9000005A0001005900010058000100570001B0
:104AA00000560001005500010054000100530000B1
:104AB00000530001005200010051000100500001AC
:104AC000004F0001004E0000004E0001004D0001AB
:104AD000004C0001004B0000004B0001004A0001A7
:104AE00000490001004800000048000100470001A3
:104AF000004600000046000100450000004500019E
:104B00000044000100430000004300010042000097
:104B1000004200010041000000410001004000018E
:104B2000003F0000003F0001003E0000003E000189
:104B3000003D0000003D0001003C0000003C000082
:104B4000003C0001003B0000003B0001003A000077
:104B5000003A00010039000000390001003800006F
:104B60000038000000380001003700000037000165
:104B7000003600000036000000360001003500005D
:104B80000035000000350001003400000034000052
:104B90000034000100330000003300000033000146
:104BA000003200000032000000320001003100003D
:104BB0000031000000310001003000000030000032
:104BC00000300001002F0000002F0000002F000027
:104BD000002F0001002E0000002E0000002E00011A
:104BE000002D0000002D0000002D0000002D000110
:104BF000002C0000002C0000002C0000002C000104
:104C0000002B0000002B0000002B0000002B0001F7
:104C1000002A0000002A0000002A0000002A0001EB
:104C200000290000002900000029000000290000E0
:104C300000290001002800000028000000280000D2
:104C400000280000002800010027000000270000C5
:104C500000270000002700000027000100260000B8
:104C600000260000002600000026000000260001AB
:104C700000250000002500000025000000250000A0
:104C80000025000000250001002400000024000091
:104C90000024000000240000002400010023000084
:104CA0000023000000230000002300000023000078
:104CB0000023000000230001002200000022000069
:104CC000002200000022000000220000002200015B
:104CD0000021000000210000002100000021000050
:104CE0000021000000210000002100010020000040
:104CF0000020000000200000002000000020000034
:104D0000002000000020000000200001001F000023
:104D1000001F0000001F0000001F0000001F000017
:104D2000001F0000001F0001001E0000001E000008
:104D3000001E0000001E0000000000000000110A1C
:104D400004505255534133444657002079303D2595
:104D5000640A002078303D25640A004F4B0A004564
:104D600052524F522061643D25640A002020207A6F
:104D7000303D25640A00207A303D25640A00207900
:104D8000303D25640A002078303D25640A0078799A
:104D90007A63616C5F66696E645F706F696E745F81
:104DA00063656E746572320A0000002100240027DA
:104DB000002A002D0030003300010100000401072B
:104DC000010A0100002200250028002B002E0031DE
:104DD00000340002010000050108010B0100002061
:104DE000002300260029002C002F003200000100C3
:104DF0000003010601090105050505070508080866
:104E000008020202020A0A0808040404040101015B
:104E10000101010101030303030303030304070763
:104E2000070C0C0C0C0C0C0C0C0202020206060601
:104E300006060606060B0B0B0B0B0B0B0B07070AE4
:104E40000A0A0A0A0A0505050404040808010210F2
:104E50002020080810204010204080020102010894
:104E60000402010102040810204080804020100844
:104E7000040201800402018040201008040201089D
:104E800004020101020408102040800102040810FD
:104E9000204080100804088010204004408010202A
:104EA00040048000000A0B02090C0D0E08070304E1
:104EB00001000000000000000000000000000000F1
:104EC00000000000000000000000000000000012D0
:104ED00011100000000000000000000000000000B1
:104EE00000000000000000000000000000000000C2
:104EF0000000000000000000004572726F72202D5B
:104F000020737461746963206D656D6F72792068B8
:104F10006173206265656E206F7665727772697461
:104F200074656E00436172642072656D6F766564AE
:104F3000005072696E746572206E6F7A7A6C6520AB
:104F40006469616D65746572206469666665727313
:104F50002066726F6D2074686520472D636F6465ED
:104F60002E20506C6561736520636865636B2074E7
:104F700068652076616C756520696E207365747450
:104F8000696E67732E205072696E742063616E6360
:104F9000656C6C65642E005072696E746572206E6B
:104FA0006F7A7A6C65206469616D657465722064DE
:104FB0006966666572732066726F6D20746865201D
:104FC000472D636F64652E20436F6E74696E75653F
:104FD0003F004D363030006673656E736F725F75DB
:104FE0007064617465202D204D3630300A00667380
:104FF000656E736F725F726573746F72655F7072E6
:10500000696E745F616E645F636F6E74696E7565FF
:105010000A006673656E736F725F6F715F6D6561B5
:1050200073737572655F73746F702C202568687573
:105030002073616D706C65730A006673656E736FC3
:10504000725F6F715F6D656173737572655F7374A5
:105050006172740A006673656E736F725F73746F4A
:10506000705F616E645F736176655F7072696E74A4
:105070000A006673656E736F725F6572725F636E4E
:1050800074203D20300A004731204533204632301D
:105090003000473120452D33204632303000205734
:1050A0003A0020453A00543A005A206C697665204F
:1050B00061646A757374206F7574206F6620726105
:1050C0006E67652E2053657474696E6720746F2057
:1050D000302E20436C69636B20746F20636F6E7495
:1050E000696E75652E005A206C6976652061646A68
:1050F000757374206F7574206F662072616E6765BA
:105100002E2053657474696E6720746F2030002000
:10511000423A0020453A00543A002079645F6D69B4
:105120006E3D25752079645F6D61783D2575207928
:10513000645F6176673D25752073685F6176673DC2
:1051400025750A002073745F73756D3D2575207990
:10515000645F73756D3D25752065725F73756D3D78
:1051600025752065725F6D61783D256868750A0058
:10517000496E6163746976697479205368757464E3
:105180006F776E004B494C4C45442E20005072699D
:105190006E7465722068616C7465642E206B696C36
:1051A0006C28292063616C6C656421004B494C4C70
:1051B0003A2025640A004D32323120496E76616C06
:1051C000696420657874727564657220004D3231AF
:1051D0003820496E76616C696420657874727564F4
:1051E000657220004D31303920496E76616C6964FA
:1051F00020657874727564657220004D31303520F9
:10520000496E76616C696420657874727564657244
:1052100020004D31303420496E76616C6964206520
:1052200078747275646572200048656174696E6790
:105230002064697361626C656420627920736166C1
:105240006574792074696D65722E001000C90210B2
:10525000012C014001220170011801B0010E01F082
:105260000104015002FA00B002F0003003E600D061
:1052700003DC009004D2007005C800A006BE000048
:1052800008B400B009AA00D00BA000600E96006020
:10529000118C000015820020197800C01D6E00A03E
:1052A000226400B0275A00902C500000314600E0E4
:1052B000343C0010383200903A2800603C1E00A0B8
:1052C0003D1400803E0A00203F000045787472754E
:1052D0006465722066616E20737065656420697311
:1052E000206C6F776572207468616E2065787065D8
:1052F00063746564005072696E742066616E207319
:1053000070656564206973206C6F776572207468BE
:10531000616E206578706563746564004572723AE9
:10532000204D415854454D50003A204578747275CF
:10533000646572207377697463686564206F66665C
:105340002E204D415854454D502074726967676551
:105350007265642021004572723A204D41585445CF
:105360004D50204245440054656D706572617475FE
:105370007265206865617465642062656420737776
:10538000697463686564206F66662E204D415854C9
:10539000454D50207472696767657265642021000D
:1053A000202D20496E76616C696420657874727571
:1053B000646572206E756D62657220210070012C2B
:1053C0000190012701B0012201C0011D01F0011867
:1053D000011002130130020E016002090190020463
:1053E00001C002FF000003FA004003F5008003F053
:1053F00000D003EB002004E6007004E100E004DCD0
:10540000004005D700C005D2004006CD00D006C838
:10541000008007C3003008BE00F008B900C009B41E
:1054200000B00AAF00B00BAA00D00CA500000EA07F
:1054300000500F9B00C01096005012910000148C79
:1054400000C0158700B0178200B0197D00D01B780E
:1054500000001E730040206E0090226900F024645A
:105460000040275F0090295A00E02B5500102E5075
:105470000020304B0010324600E033410090353CB4
:10548000001037370070383200A0392D00B03A28AC
:1054900000A03B2300603C1E00103D1900903D140D
:1054A00000103E0F00703E0A00C03E0500003F00A5
:1054B0000090137D00B0157800F0177300601A6E2D
:1054C00000F01C6900A01F640050225F0020255AD4
:1054D00000E0275500902A5000202D4B00A02F46B9
:1054E00000F031410010343C00F0353700A0373275
:1054F0000020392D00603A2800703B2300603C1EDC
:1055000000203D1900C03D1400403E0F00A03E0A9F
:1055100000F03E0500403F0000703FFBFF903FF66B
:10552000FFB03FF1FFC03FECFFD03FE7FFE03FE2BD
:10553000FFF03FDDFFF03FD8FF20484F54454E4479
:1055400020544845524D414C2052554E41574159E7
:1055500000204845415442454420544845524D415D
:105560004C2052554E4157415900544845524D41E7
:105570004C2052554E415741590042454420544811
:1055800045524D414C2052554E41574159002054EF
:105590004845524D414C2052554E415741592028C3
:1055A000205052454845415420484F54454E4429C7
:1055B0000020544845524D414C2052554E415741D0
:1055C00059202820505245484541542048454154CF
:1055D00042454429005052454845415420455252C5
:1055E0004F520042454420505245484541542045C1
:1055F00052524F5200332E382E31007263006265D2
:10560000746100616C706861006465760078797A15
:1056100063616C5F73706972616C322063783D25E1
:10562000642063793D2564207A303D256420647AC6
:105630003D2564207261646975733D256420616451
:105640003D25640A00746D63323133305F676F74D7
:105650006F5F7374657020256420256420256420A5
:105660002564200A002E002E004E6F77206672659A
:1056700073682066696C653A20004E6F7720646F0E
:10568000696E672066696C653A20002220706F732E
:10569000002220706172656E743A220053554252A6
:1056A0004F5554494E452043414C4C20746172671C
:1056B00065743A22002E0057726974696E6720740F
:1056C0006F2066696C653A200046696C65207365D9
:1056D0006C6563746564002053697A653A200046FE
:1056E000696C65206F70656E65643A20007472792C
:1056F000696E6720746F2063616C6C207375622D16
:1057000067636F64652066696C6573207769746888
:1057100020746F6F206D616E79206C6576656C7397
:105720002E006F70656E206661696C65642C204682
:10573000696C653A200020746F6F206C6F6E672073
:10574000657874727573696F6E2070726576656EB8
:105750007465640020636F6C64206578747275737F
:10576000696F6E2070726576656E746564004D4970
:105770004E54454D5020666978656400506C6561F3
:1057800073652072657374617274004572723A2099
:105790004D494E54454D50003A2045787472756419
:1057A0006572207377697463686564206F66662E1E
:1057B000204D494E54454D5020747269676765729B
:1057C00065642021004572723A204D494E54454D82
:1057D00050204245440054656D7065726174757265
:1057E000652068656174656420626564207377690B
:1057F0007463686564206F66662E204D494E54457B
:105800004D50207472696767657265642021007469
:105810006D63323133305F686F6D655F656E7465DF
:105820007228617865735F6D61736B3D30782530E8
:105830003278290A00746D63323133305F686F6DDE
:10584000655F6578697420746D63323133305F73DE
:10585000675F686F6D696E675F617865735F6D61C3
:10586000736B3D3078253032780A000000A040008C
:1058700000A0400000004025336420737465703D33
:10588000253264206D73636E743D2534640A000014
:10589000007F43008058439AD95143FFFFFF67635D
:1058A0006F64655F4D37303120626567696E0A004D
:1058B0004D4D5520706F776572206661696C73007D
:1058C0004D4D55206C6F6164206661696C73004DAD
:1058D0004D55206661696C7300546F74616C20666D
:1058E00061696C7572657300437261736800466923
:1058F0006C616D2E2072756E6F75747300506F77CA
:105900006572206661696C7572657300546F7461AD
:105910006C206661696C75726573004372617368AF
:105920000046696C616D2E2072756E6F7574730020
:10593000506F776572206661696C75726573004C93
:10594000617374207072696E74206661696C75721F
:10595000657300546F74616C004C617374207072D5
:10596000696E740050494E444100416D6269656E34
:10597000740042656C742073746174757300566FA3
:105980006C74616765730054656D706572617475E0
:105990007265730042656C74207374617475730072
:1059A00053656E736F7220696E666F00457874720E
:1059B0007564657220696E666F0058595A2063617C
:1059C0006C2E2064657461696C7300756E6B6E6F0C
:1059D000776E004D4D553220636F6E6E6563746552
:1059E0006400446174653A00686F77746F2E70725A
:1059F00075736133642E636F6D00666F72756D2E03
:105A0000707275736133642E636F6D00707275739D
:105A10006133642E636F6D00746F20756E6C6F61FF
:105A2000642066696C616D656E7400746F206C6FC4
:105A300061642066696C616D656E74005072657397
:105A40007320746865206B6E6F62003E43616E6305
:105A5000656C0050726568656174696E6720746F6B
:105A6000206375740050726568656174696E6720A3
:105A7000746F20656A65637400507265686561744F
:105A8000696E6720746F20756E6C6F616400507270
:105A90006568656174696E6720746F206C6F6164FE
:105AA00000436F6F6C646F776E0025530A20252DBD
:105AB00031362E313653252D33640A20252D3136CB
:105AC0002E313653252D33640A20252D31362E31C3
:105AD0003653252D33640025530A20252D31362ECB
